:1000000018C01FC01EC01DC01CC01BC01AC019C014
:1000100018C017C016C015C014C013C012C011C03C
:1000200010C00000000100020003000701000101F0
:10003000010211241FBECFE5D2E0DEBFCDBF36D016
:1000400085C0DECFCF93C82F40E050E061E080E074
:1000500090E0A1E0B0E02C2F262301F19A01220FBD
:10006000331FF901EE5DFF4F7491F9013196EE5D9A
:10007000FF4F711108C0E4919D0102C0220F331F90
:10008000EA95E2F709C0E4919D0102C0220F331FF7
:10009000EA95E2F7322F2227822B932B660F4F5FD0
:1000A0005F4F48305105B9F6CF91089520E030E018
:1000B00041E050E0C901880F991FFC01EE5DFF4F40
:1000C0006491FC013196EE5DFF4F61110AC0E4912D
:1000D0006AB3CA0101C0880FEA95EAF7862B8ABB8A
:1000E00009C0E49167B3CA0101C0880FEA95EAF735
:1000F000862B87BB2F5F3F4F28303105D9F601E0B3
:1001000010E0C0E0D0E078010C2E01C0EE0C0A94A3
:10011000EAF78E2D97DF2BB3822B8BBB88B3982BFE
:1001200098BB83E294EF0197F1F700C000008E2D99
:1001300089DF2BB3809528232BBB88B39095892327
:1001400088BB2196C830D105F1F6DBCFF894FFCFFC
:00000001FF
