:100000007FC08EC08DC08CC08BC08AC089C088C0A4
:1000100087C086C085C084C083C082C081C080C0C4
:100020007FC0000000010002000300070100010181
:1000300001023E5149453E00427F40004261514924
:100040004622414949360C0A497F482F49494931DE
:100050003E49494932017109050336494949362665
:100060004949493E7E0909097E7F494949363E4151
:100070004141227F4141413E7F494949417F090930
:1000800009093E4149493A7F0808087F00417F41FC
:10009000003040413F017F08081463007F4040402A
:1000A0007F020C027F7F020C107F3E4141413E7F68
:1000B000090909063E4151215E7F09192946464931
:1000C00049493101017F01013F4040403F1F20402D
:1000D000201F3F4038403F6314081463070870082E
:1000E000076151494543000060600000005F000067
:1000F00036495522500201510906000050300000D7
:1001000011241FBECFE5D2E0DEBFCDBF21E0A0E6C7
:10011000B0E001C01D92AB30B207E1F728D2E9C3CD
:100120006FCFCF93C82F40E050E061E080E090E0D7
:10013000A1E0B0E02C2F262301F19A01220F331FFA
:10014000F901EE5DFF4F7491F9013196EE5DFF4FBD
:10015000711108C0E4919D0102C0220F331FEA957E
:10016000E2F709C0E4919D0102C0220F331FEA9516
:10017000E2F7322F2227822B932B660F4F5F5F4FC0
:1001800048305105B9F6CF910895CBDF2BB3822BC0
:100190008BBB88B3982B98BB08958FEFC2DF2BB32E
:1001A000809528232BBB88B39095892388BB08951D
:1001B000CF93C82FF2DF8C2FCF91E7CF87B9369A34
:1001C0003699FECF84B125B190E0922B0895CF935C
:1001D000DF931092630010926400109265001092F9
:1001E00066001092670010926800109269001092E9
:1001F0006A001092620010926100C0916100D0917B
:100200006200CE31D105D0F584E0D8DF092E000C94
:10021000AA0BBB0B40916700509168006091690088
:1002200070916A00840F951FA61FB71F8093670007
:1002300090936800A0936900B0936A0086E0BEDFE7
:10024000092E000CAA0BBB0B409163005091640077
:100250006091650070916600840F951FA61FB71FFF
:100260008093630090936400A0936500B093660050
:100270002196D0936200C0936100BFCF6091670068
:10028000709168008091690090916A0022EE3FEFC2
:100290004FEF5FEFB1D280916D0090916E00092E0B
:1002A000000CAA0BBB0B820F931FA41FB51F4E9708
:1002B000A105B10514F0C2E001C0C0E06091630087
:1002C00070916400809165009091660022EE3FEF8E
:1002D0004FEF5FEF91D280916B0090916C00092EEF
:1002E000000CAA0BBB0B820F931FA41FB51F4E97C8
:1002F000A105B1050CF0C1608C2FDF91CF9108955D
:10030000CF93C82F64DF982F29B3822F807225FDE9
:1003100004C091E09093600007C0892F81708C1316
:10032000F1CF91FB882780F9CF9108951F93CF9348
:10033000DF9314E0C0E0D0E881E0E2DF909160005C
:10034000992311F080E011C08111CD2BD69580E06A
:10035000D7DF909160009111F5CF8111CD2BD6950B
:10036000115051F78C2F24DF8C2FDF91CF911F91EB
:100370000895EF92FF921F93CF93DF93D7DF8823E7
:1003800009F459C0809371008093F300C4EFD0E06A
:100390002196CCDFFE013197808380916000882315
:1003A00019F08EEF9FEF4CC080E0C73FD80781F770
:1003B0001091F300109371008091F4009091F5007A
:1003C0009827892798279093700080936F008FEF6C
:1003D000810F803188F487EFE82E80E0F82E219697
:1003E000A5DFFE0131978083809160008111D9CF14
:1003F0008C2F8E19811798F399DF88839091600074
:100400009111CFCF60E0212F30E02D5F3F4F462F7D
:1004100050E0241735073CF0FA01ED50FF4F4081C2
:10042000940F6F5FF4CF91959983891307C08091E2
:10043000F60090E005C080E090E002C08FEF9FEFF3
:10044000DF91CF911F91FF90EF9008958F3048F486
:1004500090E09695982F8827979587950197F1F7C3
:1004600008952FE986E891E0215080409040E1F71F
:1004700000C000000895BF92CF92DF92EF92FF92EA
:100480000F931F93CF93DF9380E090E013D280937C
:10049000720080688DDE2FE986E891E0215080406F
:1004A0009040E1F700C0000078DEEFE9F6E821E0D7
:1004B000E150F0402040E1F700C0000040917200A0
:1004C0008CEF840F8D3708F046C050E061E070E09B
:1004D00083E790E0DFD1B0907500C0917400C695BD
:1004E000C695CF70CD9B34C0DAE08C2FAFDFD150F2
:1004F000E1F786E7E82E80E0F82EDB1599F3F701A7
:1005000081917F0165E06FD18D3CA8F4C12CD12C85
:10051000082F10E0F801EC0DFD1DEE5CFF4F8491FB
:1005200047DE8C2F93DFFFEFCF1ADF0A25E0C216DC
:10053000D10481F706C08C2F89DF8C2F87DF8C2FA9
:1005400085DF2BDE8C2F82DF8C2F80DFDF5FD5CF26
:1005500081E090E002C080E090E0DF91CF911F91B8
:100560000F91FF90EF90DF90CF90BF90089520E023
:1005700030E041E050E0C901880F991FFC01EE5DB9
:10058000FF4F6491FC013196EE5DFF4F61110AC08F
:10059000E4916AB3CA0101C0880FEA95EAF7862B95
:1005A0008ABB09C0E49167B3CA0101C0880FEA950C
:1005B000EAF7862B87BB2F5F3F4F28303105D9F6EE
:1005C000DD9A379A87E087B9E8DD87EA91E60197F7
:1005D000F1F700C000008FEFD8DD87EA91E60197C0
:1005E000F1F700C00000D9DDE12CF12CC1E087EA71
:1005F00091E60197F1F700C000008C2F0E2C01C08E
:10060000880F0A94EAF7C1DD9FEFE91AF90A28E09A
:10061000E216F10461F787EA91E60197F1F700C06D
:100620000000BBDD28DF81E0809360008EE1C82EF2
:10063000D12CE12CF12CCD9B05C08091600088234A
:1006400009F496C080E8B4DD109263001092640053
:100650001092650010926600109267001092680078
:100660001092690010926A0010926200109261006C
:1006700080916100909162004E9708F044C084E040
:100680009DDD092E000CAA0BBB0B40916700509119
:1006900068006091690070916A00840F951FA61F21
:1006A000B71F8093670090936800A0936900B09390
:1006B0006A0086E083DD092E000CAA0BBB0B40917B
:1006C0006300509164006091650070916600840F32
:1006D000951FA61FB71F8093630090936400A0939B
:1006E0006500B093660089EF90E00197F1F700C0D4
:1006F00000008091610090916200019690936200E9
:1007000080936100B5CF609167007091680080911F
:10071000690090916A00A70196016ED030936E0037
:1007200020936D006091630070916400809165007A
:1007300090916600A70196015FD030936C002093E2
:100740006B00CD9BFECF9FE32DE083E091502040D6
:100750008040E1F700C0000020DD109260001092A0
:10076000710040E850E06BEA70E083E790E08BD0E6
:100770001092720080916000811133C0FADD909177
:10078000600091112EC0811110C06091720066232B
:1007900041F180E090E09FD04091720050E061E034
:1007A00070E083E790E08ED01CC0863019F780910E
:1007B0006F009091700080389105E0F64091F30051
:1007C000C42FC80FC7FDD6CF50E067EF70E08D583B
:1007D0009F4F50D0809172008C1760F6C0937200CA
:1007E000C9CF49DE28CF002480FD060E660F11F028
:1007F0008695D1F7802D0895052E97FB16F4009469
:100800000FD057FD05D014D007FC02D046F408C025
:1008100050954095309521953F4F4F4F5F4F08952C
:1008200090958095709561957F4F8F4F9F4F08955C
:10083000A1E21A2EAA1BBB1BFD010DC0AA1FBB1FE4
:10084000EE1FFF1FA217B307E407F50720F0A21B56
:10085000B30BE40BF50B661F771F881F991F1A94C3
:1008600069F760957095809590959B01AC01BD01ED
:10087000CF010895FB01DC0102C001900D924150AF
:100880005040D8F70895DC0101C06D9341505040AD
:10089000E0F70895DC01CB01FC01E199FECF06C031
:1008A000FFBBEEBBE09A31960DB20D924150504025
:1008B000B8F70895E199FECF9FBB8EBBE09A9927C8
:1008C0008DB30895DC01CB0102C02D9105D04150BC
:1008D0005040D8F70895262FE199FECF1CBA9FBB50
:1008E0008EBB2DBB0FB6F894E29AE19A0FBE01962B
:0608F0000895F894FFCF0B
:00000001FF
